{
  "contractName": "AddrResolver",
  "abi": [
    {
      "constant": true,
      "inputs": [
        {
          "name": "node",
          "type": "bytes32"
        }
      ],
      "name": "addresses",
      "outputs": [
        {
          "components": [
            {
              "name": "coinType",
              "type": "uint256"
            },
            {
              "name": "addr",
              "type": "bytes"
            }
          ],
          "name": "",
          "type": "tuple[]"
        }
      ],
      "payable": false,
      "stateMutability": "view",
      "type": "function"
    }
  ],
  "bytecode": "0x608060405234801561001057600080fd5b506103e6806100206000396000f3fe608060405234801561001057600080fd5b506004361061002b5760003560e01c8063699f200f14610030575b600080fd5b61004a60048036036100459190810190610192565b610060565b60405161005791906102c9565b60405180910390f35b6060600080838152602001908152602001600020805480602002602001604051908101604052809291908181526020016000905b82821015610172578382906000526020600020906002020160405180604001604052908160008201548152602001600182018054600181600116156101000203166002900480601f01602080910402602001604051908101604052809291908181526020018280546001816001161561010002031660029004801561015a5780601f1061012f5761010080835404028352916020019161015a565b820191906000526020600020905b81548152906001019060200180831161013d57829003601f168201915b50505050508152505081526020019060010190610094565b505050509050919050565b60008135905061018c81610395565b92915050565b6000602082840312156101a457600080fd5b60006101b28482850161017d565b91505092915050565b60006101c7838361027d565b905092915050565b60006101da826102f8565b6101e4818561031b565b9350836020820285016101f6856102eb565b8060005b85811015610232578484038952815161021385826101bb565b945061021e8361030e565b925060208a019950506001810190506101fa565b50829750879550505050505092915050565b600061024f82610303565b610259818561032c565b9350610269818560208601610351565b61027281610384565b840191505092915050565b600060408301600083015161029560008601826102ba565b50602083015184820360208601526102ad8282610244565b9150508091505092915050565b6102c381610347565b82525050565b600060208201905081810360008301526102e381846101cf565b905092915050565b6000602082019050919050565b600081519050919050565b600081519050919050565b6000602082019050919050565b600082825260208201905092915050565b600082825260208201905092915050565b6000819050919050565b6000819050919050565b60005b8381101561036f578082015181840152602081019050610354565b8381111561037e576000848401525b50505050565b6000601f19601f8301169050919050565b61039e8161033d565b81146103a957600080fd5b5056fea265627a7a723058203cc02c34dbb83db77ea657ea6ba4c672f1801c83d587339740cc9c38e621b39d6c6578706572696d656e74616cf50037",
  "source": "pragma solidity ^0.5.8;\npragma experimental ABIEncoderV2;\n\n/* contract AddrResolver is ResolverBase { */\ncontract AddrResolver {\n\n    struct AddressInfo {\n        uint coinType;\n        bytes addr;\n    }\n\n    mapping(bytes32=>AddressInfo[]) _addresses;\n\n    function addresses(bytes32 node) external view returns(AddressInfo[] memory) {\n        return _addresses[node];\n    }\n}\n",
  "sourcePath": "/Users/tyler/projects/toySolidityExample/contracts/AddrResolver.sol",
  "compiler": {
    "name": "solc",
    "version": "0.5.8+commit.23d335f2.Emscripten.clang"
  },
  "schemaVersion": "3.0.16",
  "updatedAt": "2019-09-27T16:04:06.702Z",
  "devdoc": {
    "methods": {}
  },
  "userdoc": {
    "methods": {}
  }
}